{
  "_format": "hh-sol-artifact-1",
  "contractName": "HalloweenHorror",
  "sourceName": "contracts/HalloweenHorror.sol",
  "abi": [
    {
      "inputs": [
        {
          "internalType": "string[]",
          "name": "characterNames",
          "type": "string[]"
        },
        {
          "internalType": "string[]",
          "name": "characterImageURIs",
          "type": "string[]"
        },
        {
          "internalType": "uint256[]",
          "name": "characterHealth",
          "type": "uint256[]"
        },
        {
          "internalType": "uint256[]",
          "name": "characterAttackDamage",
          "type": "uint256[]"
        },
        {
          "internalType": "string",
          "name": "horrorName",
          "type": "string"
        },
        {
          "internalType": "string",
          "name": "horrorImageURI",
          "type": "string"
        },
        {
          "internalType": "uint256",
          "name": "horrorHealth",
          "type": "uint256"
        },
        {
          "internalType": "uint256",
          "name": "horrorAttackDamage",
          "type": "uint256"
        }
      ],
      "stateMutability": "nonpayable",
      "type": "constructor"
    },
    {
      "anonymous": false,
      "inputs": [
        {
          "indexed": true,
          "internalType": "address",
          "name": "owner",
          "type": "address"
        },
        {
          "indexed": true,
          "internalType": "address",
          "name": "approved",
          "type": "address"
        },
        {
          "indexed": true,
          "internalType": "uint256",
          "name": "tokenId",
          "type": "uint256"
        }
      ],
      "name": "Approval",
      "type": "event"
    },
    {
      "anonymous": false,
      "inputs": [
        {
          "indexed": true,
          "internalType": "address",
          "name": "owner",
          "type": "address"
        },
        {
          "indexed": true,
          "internalType": "address",
          "name": "operator",
          "type": "address"
        },
        {
          "indexed": false,
          "internalType": "bool",
          "name": "approved",
          "type": "bool"
        }
      ],
      "name": "ApprovalForAll",
      "type": "event"
    },
    {
      "anonymous": false,
      "inputs": [
        {
          "indexed": false,
          "internalType": "uint256",
          "name": "newHorrorHealth",
          "type": "uint256"
        },
        {
          "indexed": false,
          "internalType": "uint256",
          "name": "newCharacterHealth",
          "type": "uint256"
        }
      ],
      "name": "AttackComplete",
      "type": "event"
    },
    {
      "anonymous": false,
      "inputs": [
        {
          "indexed": false,
          "internalType": "address",
          "name": "sender",
          "type": "address"
        },
        {
          "indexed": false,
          "internalType": "uint256",
          "name": "tokenId",
          "type": "uint256"
        },
        {
          "indexed": false,
          "internalType": "uint256",
          "name": "characterIndex",
          "type": "uint256"
        }
      ],
      "name": "CharacterNFTMinted",
      "type": "event"
    },
    {
      "anonymous": false,
      "inputs": [
        {
          "indexed": true,
          "internalType": "address",
          "name": "from",
          "type": "address"
        },
        {
          "indexed": true,
          "internalType": "address",
          "name": "to",
          "type": "address"
        },
        {
          "indexed": true,
          "internalType": "uint256",
          "name": "tokenId",
          "type": "uint256"
        }
      ],
      "name": "Transfer",
      "type": "event"
    },
    {
      "inputs": [
        {
          "internalType": "address",
          "name": "to",
          "type": "address"
        },
        {
          "internalType": "uint256",
          "name": "tokenId",
          "type": "uint256"
        }
      ],
      "name": "approve",
      "outputs": [],
      "stateMutability": "nonpayable",
      "type": "function"
    },
    {
      "inputs": [],
      "name": "attackHorror",
      "outputs": [],
      "stateMutability": "nonpayable",
      "type": "function"
    },
    {
      "inputs": [
        {
          "internalType": "address",
          "name": "owner",
          "type": "address"
        }
      ],
      "name": "balanceOf",
      "outputs": [
        {
          "internalType": "uint256",
          "name": "",
          "type": "uint256"
        }
      ],
      "stateMutability": "view",
      "type": "function"
    },
    {
      "inputs": [],
      "name": "checkIfUserHasNFT",
      "outputs": [
        {
          "components": [
            {
              "internalType": "uint256",
              "name": "characterIndex",
              "type": "uint256"
            },
            {
              "internalType": "string",
              "name": "name",
              "type": "string"
            },
            {
              "internalType": "string",
              "name": "imageURI",
              "type": "string"
            },
            {
              "internalType": "uint256",
              "name": "health",
              "type": "uint256"
            },
            {
              "internalType": "uint256",
              "name": "maxHealth",
              "type": "uint256"
            },
            {
              "internalType": "uint256",
              "name": "attackDamage",
              "type": "uint256"
            }
          ],
          "internalType": "struct HalloweenHorror.CharacterAttributes",
          "name": "",
          "type": "tuple"
        }
      ],
      "stateMutability": "view",
      "type": "function"
    },
    {
      "inputs": [],
      "name": "getAllCharacters",
      "outputs": [
        {
          "components": [
            {
              "internalType": "uint256",
              "name": "characterIndex",
              "type": "uint256"
            },
            {
              "internalType": "string",
              "name": "name",
              "type": "string"
            },
            {
              "internalType": "string",
              "name": "imageURI",
              "type": "string"
            },
            {
              "internalType": "uint256",
              "name": "health",
              "type": "uint256"
            },
            {
              "internalType": "uint256",
              "name": "maxHealth",
              "type": "uint256"
            },
            {
              "internalType": "uint256",
              "name": "attackDamage",
              "type": "uint256"
            }
          ],
          "internalType": "struct HalloweenHorror.CharacterAttributes[]",
          "name": "",
          "type": "tuple[]"
        }
      ],
      "stateMutability": "view",
      "type": "function"
    },
    {
      "inputs": [
        {
          "internalType": "uint256",
          "name": "tokenId",
          "type": "uint256"
        }
      ],
      "name": "getApproved",
      "outputs": [
        {
          "internalType": "address",
          "name": "",
          "type": "address"
        }
      ],
      "stateMutability": "view",
      "type": "function"
    },
    {
      "inputs": [],
      "name": "getHorror",
      "outputs": [
        {
          "components": [
            {
              "internalType": "string",
              "name": "name",
              "type": "string"
            },
            {
              "internalType": "string",
              "name": "imageURI",
              "type": "string"
            },
            {
              "internalType": "uint256",
              "name": "health",
              "type": "uint256"
            },
            {
              "internalType": "uint256",
              "name": "maxHealth",
              "type": "uint256"
            },
            {
              "internalType": "uint256",
              "name": "attackDamage",
              "type": "uint256"
            }
          ],
          "internalType": "struct HalloweenHorror.Horror",
          "name": "",
          "type": "tuple"
        }
      ],
      "stateMutability": "view",
      "type": "function"
    },
    {
      "inputs": [],
      "name": "horror",
      "outputs": [
        {
          "internalType": "string",
          "name": "name",
          "type": "string"
        },
        {
          "internalType": "string",
          "name": "imageURI",
          "type": "string"
        },
        {
          "internalType": "uint256",
          "name": "health",
          "type": "uint256"
        },
        {
          "internalType": "uint256",
          "name": "maxHealth",
          "type": "uint256"
        },
        {
          "internalType": "uint256",
          "name": "attackDamage",
          "type": "uint256"
        }
      ],
      "stateMutability": "view",
      "type": "function"
    },
    {
      "inputs": [
        {
          "internalType": "address",
          "name": "owner",
          "type": "address"
        },
        {
          "internalType": "address",
          "name": "operator",
          "type": "address"
        }
      ],
      "name": "isApprovedForAll",
      "outputs": [
        {
          "internalType": "bool",
          "name": "",
          "type": "bool"
        }
      ],
      "stateMutability": "view",
      "type": "function"
    },
    {
      "inputs": [
        {
          "internalType": "uint256",
          "name": "_characterIndex",
          "type": "uint256"
        }
      ],
      "name": "mintCharacter",
      "outputs": [],
      "stateMutability": "nonpayable",
      "type": "function"
    },
    {
      "inputs": [],
      "name": "name",
      "outputs": [
        {
          "internalType": "string",
          "name": "",
          "type": "string"
        }
      ],
      "stateMutability": "view",
      "type": "function"
    },
    {
      "inputs": [
        {
          "internalType": "uint256",
          "name": "",
          "type": "uint256"
        }
      ],
      "name": "nftHolderAttributes",
      "outputs": [
        {
          "internalType": "uint256",
          "name": "characterIndex",
          "type": "uint256"
        },
        {
          "internalType": "string",
          "name": "name",
          "type": "string"
        },
        {
          "internalType": "string",
          "name": "imageURI",
          "type": "string"
        },
        {
          "internalType": "uint256",
          "name": "health",
          "type": "uint256"
        },
        {
          "internalType": "uint256",
          "name": "maxHealth",
          "type": "uint256"
        },
        {
          "internalType": "uint256",
          "name": "attackDamage",
          "type": "uint256"
        }
      ],
      "stateMutability": "view",
      "type": "function"
    },
    {
      "inputs": [
        {
          "internalType": "address",
          "name": "",
          "type": "address"
        }
      ],
      "name": "nftHolders",
      "outputs": [
        {
          "internalType": "uint256",
          "name": "",
          "type": "uint256"
        }
      ],
      "stateMutability": "view",
      "type": "function"
    },
    {
      "inputs": [
        {
          "internalType": "uint256",
          "name": "tokenId",
          "type": "uint256"
        }
      ],
      "name": "ownerOf",
      "outputs": [
        {
          "internalType": "address",
          "name": "",
          "type": "address"
        }
      ],
      "stateMutability": "view",
      "type": "function"
    },
    {
      "inputs": [
        {
          "internalType": "address",
          "name": "from",
          "type": "address"
        },
        {
          "internalType": "address",
          "name": "to",
          "type": "address"
        },
        {
          "internalType": "uint256",
          "name": "tokenId",
          "type": "uint256"
        }
      ],
      "name": "safeTransferFrom",
      "outputs": [],
      "stateMutability": "nonpayable",
      "type": "function"
    },
    {
      "inputs": [
        {
          "internalType": "address",
          "name": "from",
          "type": "address"
        },
        {
          "internalType": "address",
          "name": "to",
          "type": "address"
        },
        {
          "internalType": "uint256",
          "name": "tokenId",
          "type": "uint256"
        },
        {
          "internalType": "bytes",
          "name": "_data",
          "type": "bytes"
        }
      ],
      "name": "safeTransferFrom",
      "outputs": [],
      "stateMutability": "nonpayable",
      "type": "function"
    },
    {
      "inputs": [
        {
          "internalType": "address",
          "name": "operator",
          "type": "address"
        },
        {
          "internalType": "bool",
          "name": "approved",
          "type": "bool"
        }
      ],
      "name": "setApprovalForAll",
      "outputs": [],
      "stateMutability": "nonpayable",
      "type": "function"
    },
    {
      "inputs": [
        {
          "internalType": "bytes4",
          "name": "interfaceId",
          "type": "bytes4"
        }
      ],
      "name": "supportsInterface",
      "outputs": [
        {
          "internalType": "bool",
          "name": "",
          "type": "bool"
        }
      ],
      "stateMutability": "view",
      "type": "function"
    },
    {
      "inputs": [],
      "name": "symbol",
      "outputs": [
        {
          "internalType": "string",
          "name": "",
          "type": "string"
        }
      ],
      "stateMutability": "view",
      "type": "function"
    },
    {
      "inputs": [
        {
          "internalType": "uint256",
          "name": "_tokenId",
          "type": "uint256"
        }
      ],
      "name": "tokenURI",
      "outputs": [
        {
          "internalType": "string",
          "name": "",
          "type": "string"
        }
      ],
      "stateMutability": "view",
      "type": "function"
    },
    {
      "inputs": [
        {
          "internalType": "address",
          "name": "from",
          "type": "address"
        },
        {
          "internalType": "address",
          "name": "to",
          "type": "address"
        },
        {
          "internalType": "uint256",
          "name": "tokenId",
          "type": "uint256"
        }
      ],
      "name": "transferFrom",
      "outputs": [],
      "stateMutability": "nonpayable",
      "type": "function"
    }
  ],
  "bytecode": "0x60806040523480156200001157600080fd5b506040516200598238038062005982833981810160405281019062000037919062000a69565b60405180606001604052806021815260200162005961602191396040518060400160405280600f81526020017f436f6c6c6567652053747564656e74000000000000000000000000000000000081525081600090805190602001906200009f929190620007d1565b508060019080519060200190620000b8929190620007d1565b5050506040518060a00160405280858152602001848152602001838152602001838152602001828152506006600082015181600001908051906020019062000102929190620007d1565b50602082015181600101908051906020019062000121929190620007d1565b50604082015181600201556060820151816003015560808201518160040155905050620002a4604051806060016040528060308152602001620059316030913960066000018054620001739062000dec565b80601f0160208091040260200160405190810160405280929190818152602001828054620001a19062000dec565b8015620001f25780601f10620001c657610100808354040283529160200191620001f2565b820191906000526020600020905b815481529060010190602001808311620001d457829003601f168201915b5050505050600660020154600660010180546200020f9062000dec565b80601f01602080910402602001604051908101604052809291908181526020018280546200023d9062000dec565b80156200028e5780601f1062000262576101008083540402835291602001916200028e565b820191906000526020600020905b8154815290600101906020018083116200027057829003601f168201915b5050505050620006e660201b62001e0d1760201c565b60005b8851811015620006c057600c6040518060c001604052808381526020018b8481518110620002fe577f4e487b7100000000000000000000000000000000000000000000000000000000600052603260045260246000fd5b602002602001015181526020018a848151811062000345577f4e487b7100000000000000000000000000000000000000000000000000000000600052603260045260246000fd5b602002602001015181526020018984815181106200038c577f4e487b7100000000000000000000000000000000000000000000000000000000600052603260045260246000fd5b60200260200101518152602001898481518110620003d3577f4e487b7100000000000000000000000000000000000000000000000000000000600052603260045260246000fd5b602002602001015181526020018884815181106200041a577f4e487b7100000000000000000000000000000000000000000000000000000000600052603260045260246000fd5b6020026020010151815250908060018154018082558091505060019003906000526020600020906006020160009091909190915060008201518160000155602082015181600101908051906020019062000476929190620007d1565b50604082015181600201908051906020019062000495929190620007d1565b50606082015181600301556080820151816004015560a0820151816005015550506000600c8281548110620004f3577f4e487b7100000000000000000000000000000000000000000000000000000000600052603260045260246000fd5b90600052602060002090600602016040518060c001604052908160008201548152602001600182018054620005289062000dec565b80601f0160208091040260200160405190810160405280929190818152602001828054620005569062000dec565b8015620005a75780601f106200057b57610100808354040283529160200191620005a7565b820191906000526020600020905b8154815290600101906020018083116200058957829003601f168201915b50505050508152602001600282018054620005c29062000dec565b80601f0160208091040260200160405190810160405280929190818152602001828054620005f09062000dec565b8015620006415780601f10620006155761010080835404028352916020019162000641565b820191906000526020600020905b8154815290600101906020018083116200062357829003601f168201915b5050505050815260200160038201548152602001600482015481526020016005820154815250509050620006a86040518060600160405280602a815260200162005907602a9139826020015183606001518460400151620006e660201b62001e0d1760201c565b50600181620006b8919062000d4f565b9050620002a7565b50620006d8600b6200079260201b62001eaf1760201c565b505050505050505062000f10565b6200078c8484848460405160240162000703949392919062000c14565b6040516020818303038152906040527f8d142cdd000000000000000000000000000000000000000000000000000000007bffffffffffffffffffffffffffffffffffffffffffffffffffffffff19166020820180517bffffffffffffffffffffffffffffffffffffffffffffffffffffffff8381831617835250505050620007a860201b60201c565b50505050565b6001816000016000828254019250508190555050565b60008151905060006a636f6e736f6c652e6c6f679050602083016000808483855afa5050505050565b828054620007df9062000dec565b90600052602060002090601f0160209004810192826200080357600085556200084f565b82601f106200081e57805160ff19168380011785556200084f565b828001600101855582156200084f579182015b828111156200084e57825182559160200191906001019062000831565b5b5090506200085e919062000862565b5090565b5b808211156200087d57600081600090555060010162000863565b5090565b600062000898620008928462000c9f565b62000c76565b90508083825260208201905082856020860282011115620008b857600080fd5b60005b858110156200090757815167ffffffffffffffff811115620008dc57600080fd5b808601620008eb898262000a25565b85526020850194506020840193505050600181019050620008bb565b5050509392505050565b600062000928620009228462000cce565b62000c76565b905080838252602082019050828560208602820111156200094857600080fd5b60005b858110156200097c578162000961888262000a52565b8452602084019350602083019250506001810190506200094b565b5050509392505050565b60006200099d620009978462000cfd565b62000c76565b905082815260208101848484011115620009b657600080fd5b620009c384828562000db6565b509392505050565b600082601f830112620009dd57600080fd5b8151620009ef84826020860162000881565b91505092915050565b600082601f83011262000a0a57600080fd5b815162000a1c84826020860162000911565b91505092915050565b600082601f83011262000a3757600080fd5b815162000a4984826020860162000986565b91505092915050565b60008151905062000a638162000ef6565b92915050565b600080600080600080600080610100898b03121562000a8757600080fd5b600089015167ffffffffffffffff81111562000aa257600080fd5b62000ab08b828c01620009cb565b985050602089015167ffffffffffffffff81111562000ace57600080fd5b62000adc8b828c01620009cb565b975050604089015167ffffffffffffffff81111562000afa57600080fd5b62000b088b828c01620009f8565b965050606089015167ffffffffffffffff81111562000b2657600080fd5b62000b348b828c01620009f8565b955050608089015167ffffffffffffffff81111562000b5257600080fd5b62000b608b828c0162000a25565b94505060a089015167ffffffffffffffff81111562000b7e57600080fd5b62000b8c8b828c0162000a25565b93505060c062000b9f8b828c0162000a52565b92505060e062000bb28b828c0162000a52565b9150509295985092959890939650565b600062000bcf8262000d33565b62000bdb818562000d3e565b935062000bed81856020860162000db6565b62000bf88162000ee5565b840191505092915050565b62000c0e8162000dac565b82525050565b6000608082019050818103600083015262000c30818762000bc2565b9050818103602083015262000c46818662000bc2565b905062000c57604083018562000c03565b818103606083015262000c6b818462000bc2565b905095945050505050565b600062000c8262000c95565b905062000c90828262000e22565b919050565b6000604051905090565b600067ffffffffffffffff82111562000cbd5762000cbc62000eb6565b5b602082029050602081019050919050565b600067ffffffffffffffff82111562000cec5762000ceb62000eb6565b5b602082029050602081019050919050565b600067ffffffffffffffff82111562000d1b5762000d1a62000eb6565b5b62000d268262000ee5565b9050602081019050919050565b600081519050919050565b600082825260208201905092915050565b600062000d5c8262000dac565b915062000d698362000dac565b9250827fffffffffffffffffffffffffffffffffffffffffffffffffffffffffffffffff0382111562000da15762000da062000e58565b5b828201905092915050565b6000819050919050565b60005b8381101562000dd657808201518184015260208101905062000db9565b8381111562000de6576000848401525b50505050565b6000600282049050600182168062000e0557607f821691505b6020821081141562000e1c5762000e1b62000e87565b5b50919050565b62000e2d8262000ee5565b810181811067ffffffffffffffff8211171562000e4f5762000e4e62000eb6565b5b80604052505050565b7f4e487b7100000000000000000000000000000000000000000000000000000000600052601160045260246000fd5b7f4e487b7100000000000000000000000000000000000000000000000000000000600052602260045260246000fd5b7f4e487b7100000000000000000000000000000000000000000000000000000000600052604160045260246000fd5b6000601f19601f8301169050919050565b62000f018162000dac565b811462000f0d57600080fd5b50565b6149e78062000f206000396000f3fe608060405234801561001057600080fd5b50600436106101375760003560e01c80637df124a1116100b8578063b88d4fde1161007c578063b88d4fde1461036b578063c87b56dd14610387578063c8cf27f4146103b7578063de97c026146103d5578063e90eb7dc146103df578063e985e9c5146103fb57610137565b80637df124a1146102ae57806383e56dca146102de57806395d89b41146102fc57806398da4c951461031a578063a22cb4651461034f57610137565b806342842e0e116100ff57806342842e0e146101f25780634f98fde21461020e5780636352211e1461023057806370a08231146102605780637aa204421461029057610137565b806301ffc9a71461013c57806306fdde031461016c578063081812fc1461018a578063095ea7b3146101ba57806323b872dd146101d6575b600080fd5b610156600480360381019061015191906130ed565b61042b565b6040516101639190613917565b60405180910390f35b61017461050d565b6040516101819190613932565b60405180910390f35b6101a4600480360381019061019f919061313f565b61059f565b6040516101b19190613857565b60405180910390f35b6101d460048036038101906101cf91906130b1565b610624565b005b6101f060048036038101906101eb9190612fab565b61073c565b005b61020c60048036038101906102079190612fab565b61079c565b005b6102166107bc565b604051610227959493929190613a5b565b60405180910390f35b61024a6004803603810190610245919061313f565b6108f0565b6040516102579190613857565b60405180910390f35b61027a60048036038101906102759190612f46565b6109a2565b6040516102879190613d1e565b60405180910390f35b610298610a5a565b6040516102a59190613cfc565b60405180910390f35b6102c860048036038101906102c39190612f46565b610bb6565b6040516102d59190613d1e565b60405180910390f35b6102e6610bce565b6040516102f391906138f5565b60405180910390f35b610304610d79565b6040516103119190613932565b60405180910390f35b610334600480360381019061032f919061313f565b610e0b565b60405161034696959493929190613d39565b60405180910390f35b61036960048036038101906103649190613075565b610f57565b005b61038560048036038101906103809190612ffa565b6110d8565b005b6103a1600480360381019061039c919061313f565b61113a565b6040516103ae9190613932565b60405180910390f35b6103bf61134b565b6040516103cc9190613cda565b60405180910390f35b6103dd611523565b005b6103f960048036038101906103f4919061313f565b611985565b005b61041560048036038101906104109190612f6f565b611d79565b6040516104229190613917565b60405180910390f35b60007f80ac58cd000000000000000000000000000000000000000000000000000000007bffffffffffffffffffffffffffffffffffffffffffffffffffffffff1916827bffffffffffffffffffffffffffffffffffffffffffffffffffffffff191614806104f657507f5b5e139f000000000000000000000000000000000000000000000000000000007bffffffffffffffffffffffffffffffffffffffffffffffffffffffff1916827bffffffffffffffffffffffffffffffffffffffffffffffffffffffff1916145b80610506575061050582611ec5565b5b9050919050565b60606000805461051c9061407f565b80601f01602080910402602001604051908101604052809291908181526020018280546105489061407f565b80156105955780601f1061056a57610100808354040283529160200191610595565b820191906000526020600020905b81548152906001019060200180831161057857829003601f168201915b5050505050905090565b60006105aa82611f2f565b6105e9576040517f08c379a00000000000000000000000000000000000000000000000000000000081526004016105e090613c5a565b60405180910390fd5b6004600083815260200190815260200160002060009054906101000a900473ffffffffffffffffffffffffffffffffffffffff169050919050565b600061062f826108f0565b90508073ffffffffffffffffffffffffffffffffffffffff168373ffffffffffffffffffffffffffffffffffffffff1614156106a0576040517f08c379a000000000000000000000000000000000000000000000000000000000815260040161069790613c9a565b60405180910390fd5b8073ffffffffffffffffffffffffffffffffffffffff166106bf611f9b565b73ffffffffffffffffffffffffffffffffffffffff1614806106ee57506106ed816106e8611f9b565b611d79565b5b61072d576040517f08c379a000000000000000000000000000000000000000000000000000000000815260040161072490613bba565b60405180910390fd5b6107378383611fa3565b505050565b61074d610747611f9b565b8261205c565b61078c576040517f08c379a000000000000000000000000000000000000000000000000000000000815260040161078390613cba565b60405180910390fd5b61079783838361213a565b505050565b6107b7838383604051806020016040528060008152506110d8565b505050565b60068060000180546107cd9061407f565b80601f01602080910402602001604051908101604052809291908181526020018280546107f99061407f565b80156108465780601f1061081b57610100808354040283529160200191610846565b820191906000526020600020905b81548152906001019060200180831161082957829003601f168201915b50505050509080600101805461085b9061407f565b80601f01602080910402602001604051908101604052809291908181526020018280546108879061407f565b80156108d45780601f106108a9576101008083540402835291602001916108d4565b820191906000526020600020905b8154815290600101906020018083116108b757829003601f168201915b5050505050908060020154908060030154908060040154905085565b6000806002600084815260200190815260200160002060009054906101000a900473ffffffffffffffffffffffffffffffffffffffff169050600073ffffffffffffffffffffffffffffffffffffffff168173ffffffffffffffffffffffffffffffffffffffff161415610999576040517f08c379a000000000000000000000000000000000000000000000000000000000815260040161099090613bfa565b60405180910390fd5b80915050919050565b60008073ffffffffffffffffffffffffffffffffffffffff168273ffffffffffffffffffffffffffffffffffffffff161415610a13576040517f08c379a0000000000000000000000000000000000000000000000000000000008152600401610a0a90613bda565b60405180910390fd5b600360008373ffffffffffffffffffffffffffffffffffffffff1673ffffffffffffffffffffffffffffffffffffffff168152602001908152602001600020549050919050565b610a62612d6d565b60066040518060a0016040529081600082018054610a7f9061407f565b80601f0160208091040260200160405190810160405280929190818152602001828054610aab9061407f565b8015610af85780601f10610acd57610100808354040283529160200191610af8565b820191906000526020600020905b815481529060010190602001808311610adb57829003601f168201915b50505050508152602001600182018054610b119061407f565b80601f0160208091040260200160405190810160405280929190818152602001828054610b3d9061407f565b8015610b8a5780601f10610b5f57610100808354040283529160200191610b8a565b820191906000526020600020905b815481529060010190602001808311610b6d57829003601f168201915b505050505081526020016002820154815260200160038201548152602001600482015481525050905090565b600e6020528060005260406000206000915090505481565b6060600c805480602002602001604051908101604052809291908181526020016000905b82821015610d7057838290600052602060002090600602016040518060c001604052908160008201548152602001600182018054610c2f9061407f565b80601f0160208091040260200160405190810160405280929190818152602001828054610c5b9061407f565b8015610ca85780601f10610c7d57610100808354040283529160200191610ca8565b820191906000526020600020905b815481529060010190602001808311610c8b57829003601f168201915b50505050508152602001600282018054610cc19061407f565b80601f0160208091040260200160405190810160405280929190818152602001828054610ced9061407f565b8015610d3a5780601f10610d0f57610100808354040283529160200191610d3a565b820191906000526020600020905b815481529060010190602001808311610d1d57829003601f168201915b50505050508152602001600382015481526020016004820154815260200160058201548152505081526020019060010190610bf2565b50505050905090565b606060018054610d889061407f565b80601f0160208091040260200160405190810160405280929190818152602001828054610db49061407f565b8015610e015780601f10610dd657610100808354040283529160200191610e01565b820191906000526020600020905b815481529060010190602001808311610de457829003601f168201915b5050505050905090565b600d602052806000526040600020600091509050806000015490806001018054610e349061407f565b80601f0160208091040260200160405190810160405280929190818152602001828054610e609061407f565b8015610ead5780601f10610e8257610100808354040283529160200191610ead565b820191906000526020600020905b815481529060010190602001808311610e9057829003601f168201915b505050505090806002018054610ec29061407f565b80601f0160208091040260200160405190810160405280929190818152602001828054610eee9061407f565b8015610f3b5780601f10610f1057610100808354040283529160200191610f3b565b820191906000526020600020905b815481529060010190602001808311610f1e57829003601f168201915b5050505050908060030154908060040154908060050154905086565b610f5f611f9b565b73ffffffffffffffffffffffffffffffffffffffff168273ffffffffffffffffffffffffffffffffffffffff161415610fcd576040517f08c379a0000000000000000000000000000000000000000000000000000000008152600401610fc490613b7a565b60405180910390fd5b8060056000610fda611f9b565b73ffffffffffffffffffffffffffffffffffffffff1673ffffffffffffffffffffffffffffffffffffffff16815260200190815260200160002060008473ffffffffffffffffffffffffffffffffffffffff1673ffffffffffffffffffffffffffffffffffffffff16815260200190815260200160002060006101000a81548160ff0219169083151502179055508173ffffffffffffffffffffffffffffffffffffffff16611087611f9b565b73ffffffffffffffffffffffffffffffffffffffff167f17307eab39ab6107e8899845ad3d59bd9653f200f220920489ca2b5937696c31836040516110cc9190613917565b60405180910390a35050565b6110e96110e3611f9b565b8361205c565b611128576040517f08c379a000000000000000000000000000000000000000000000000000000000815260040161111f90613cba565b60405180910390fd5b61113484848484612396565b50505050565b60606000600d60008481526020019081526020016000206040518060c0016040529081600082015481526020016001820180546111769061407f565b80601f01602080910402602001604051908101604052809291908181526020018280546111a29061407f565b80156111ef5780601f106111c4576101008083540402835291602001916111ef565b820191906000526020600020905b8154815290600101906020018083116111d257829003601f168201915b505050505081526020016002820180546112089061407f565b80601f01602080910402602001604051908101604052809291908181526020018280546112349061407f565b80156112815780601f1061125657610100808354040283529160200191611281565b820191906000526020600020905b81548152906001019060200180831161126457829003601f168201915b505050505081526020016003820154815260200160048201548152602001600582015481525050905060006112b982606001516123f2565b905060006112ca83608001516123f2565b905060006112db8460a001516123f2565b90506000611317856020015186604001518686866040516020016113039594939291906137a8565b60405160208183030381529060405261259f565b905060008160405160200161132c9190613835565b6040516020818303038152906040529050809650505050505050919050565b611353612d9c565b6000600e60003373ffffffffffffffffffffffffffffffffffffffff1673ffffffffffffffffffffffffffffffffffffffff168152602001908152602001600020549050600081111561151257600d60008281526020019081526020016000206040518060c0016040529081600082015481526020016001820180546113d89061407f565b80601f01602080910402602001604051908101604052809291908181526020018280546114049061407f565b80156114515780601f1061142657610100808354040283529160200191611451565b820191906000526020600020905b81548152906001019060200180831161143457829003601f168201915b5050505050815260200160028201805461146a9061407f565b80601f01602080910402602001604051908101604052809291908181526020018280546114969061407f565b80156114e35780601f106114b8576101008083540402835291602001916114e3565b820191906000526020600020905b8154815290600101906020018083116114c657829003601f168201915b505050505081526020016003820154815260200160048201548152602001600582015481525050915050611520565b61151a612d9c565b80925050505b90565b6000600e60003373ffffffffffffffffffffffffffffffffffffffff1673ffffffffffffffffffffffffffffffffffffffff1681526020019081526020016000205490506000600d60008381526020019081526020016000209050611636604051806080016040528060538152602001614934605391398260010180546115a99061407f565b80601f01602080910402602001604051908101604052809291908181526020018280546115d59061407f565b80156116225780601f106115f757610100808354040283529160200191611622565b820191906000526020600020905b81548152906001019060200180831161160557829003601f168201915b50505050508360030154846005015461275d565b6116f16040518060600160405280602981526020016148cb60299139600660000180546116629061407f565b80601f016020809104026020016040519081016040528092919081815260200182805461168e9061407f565b80156116db5780601f106116b0576101008083540402835291602001916116db565b820191906000526020600020905b8154815290600101906020018083116116be57829003601f168201915b505050505060066002015460066004015461275d565b6000816003015411611738576040517f08c379a000000000000000000000000000000000000000000000000000000000815260040161172f90613c1a565b60405180910390fd5b600060066002015411611780576040517f08c379a000000000000000000000000000000000000000000000000000000000815260040161177790613b3a565b60405180910390fd5b806005015460066002015410156117a15760006006600201819055506117c0565b80600501546006600201546117b69190613f95565b6006600201819055505b600660040154816003015410156117e057600081600301819055506117fe565b60066004015481600301546117f59190613f95565b81600301819055505b61193f604051806060016040528060398152602001614892603991396006600001805461182a9061407f565b80601f01602080910402602001604051908101604052809291908181526020018280546118569061407f565b80156118a35780601f10611878576101008083540402835291602001916118a3565b820191906000526020600020905b81548152906001019060200180831161188657829003601f168201915b50505050508360010180546118b79061407f565b80601f01602080910402602001604051908101604052809291908181526020018280546118e39061407f565b80156119305780601f1061190557610100808354040283529160200191611930565b820191906000526020600020905b81548152906001019060200180831161191357829003601f168201915b505050505084600301546127ff565b7f838ab28464562786a6c4ab2311964b82fa60bd9b14aa7e856af1f3f18d41a4146006600201548260030154604051611979929190613da8565b60405180910390a15050565b6000611991600b6128a1565b905061199d33826128af565b6040518060c00160405280838152602001600c84815481106119e8577f4e487b7100000000000000000000000000000000000000000000000000000000600052603260045260246000fd5b90600052602060002090600602016001018054611a049061407f565b80601f0160208091040260200160405190810160405280929190818152602001828054611a309061407f565b8015611a7d5780601f10611a5257610100808354040283529160200191611a7d565b820191906000526020600020905b815481529060010190602001808311611a6057829003601f168201915b50505050508152602001600c8481548110611ac1577f4e487b7100000000000000000000000000000000000000000000000000000000600052603260045260246000fd5b90600052602060002090600602016002018054611add9061407f565b80601f0160208091040260200160405190810160405280929190818152602001828054611b099061407f565b8015611b565780601f10611b2b57610100808354040283529160200191611b56565b820191906000526020600020905b815481529060010190602001808311611b3957829003601f168201915b50505050508152602001600c8481548110611b9a577f4e487b7100000000000000000000000000000000000000000000000000000000600052603260045260246000fd5b9060005260206000209060060201600301548152602001600c8481548110611beb577f4e487b7100000000000000000000000000000000000000000000000000000000600052603260045260246000fd5b9060005260206000209060060201600301548152602001600c8481548110611c3c577f4e487b7100000000000000000000000000000000000000000000000000000000600052603260045260246000fd5b906000526020600020906006020160050154815250600d6000838152602001908152602001600020600082015181600001556020820151816001019080519060200190611c8a929190612dd2565b506040820151816002019080519060200190611ca7929190612dd2565b50606082015181600301556080820151816004015560a08201518160050155905050611cec6040518060600160405280602b8152602001614987602b913982846128cd565b80600e60003373ffffffffffffffffffffffffffffffffffffffff1673ffffffffffffffffffffffffffffffffffffffff16815260200190815260200160002081905550611d3a600b611eaf565b7f4bc303fd457a97b4691b9af582ce71868a3d258638c8d4f8c60988a0f0bfb8cd338284604051611d6d939291906138be565b60405180910390a15050565b6000600560008473ffffffffffffffffffffffffffffffffffffffff1673ffffffffffffffffffffffffffffffffffffffff16815260200190815260200160002060008373ffffffffffffffffffffffffffffffffffffffff1673ffffffffffffffffffffffffffffffffffffffff16815260200190815260200160002060009054906101000a900460ff16905092915050565b611ea984848484604051602401611e2794939291906139ae565b6040516020818303038152906040527f8d142cdd000000000000000000000000000000000000000000000000000000007bffffffffffffffffffffffffffffffffffffffffffffffffffffffff19166020820180517bffffffffffffffffffffffffffffffffffffffffffffffffffffffff838183161783525050505061296c565b50505050565b6001816000016000828254019250508190555050565b60007f01ffc9a7000000000000000000000000000000000000000000000000000000007bffffffffffffffffffffffffffffffffffffffffffffffffffffffff1916827bffffffffffffffffffffffffffffffffffffffffffffffffffffffff1916149050919050565b60008073ffffffffffffffffffffffffffffffffffffffff166002600084815260200190815260200160002060009054906101000a900473ffffffffffffffffffffffffffffffffffffffff1673ffffffffffffffffffffffffffffffffffffffff1614159050919050565b600033905090565b816004600083815260200190815260200160002060006101000a81548173ffffffffffffffffffffffffffffffffffffffff021916908373ffffffffffffffffffffffffffffffffffffffff160217905550808273ffffffffffffffffffffffffffffffffffffffff16612016836108f0565b73ffffffffffffffffffffffffffffffffffffffff167f8c5be1e5ebec7d5bd14f71427d1e84f3dd0314c0f7b2291e5b200ac8c7c3b92560405160405180910390a45050565b600061206782611f2f565b6120a6576040517f08c379a000000000000000000000000000000000000000000000000000000000815260040161209d90613b9a565b60405180910390fd5b60006120b1836108f0565b90508073ffffffffffffffffffffffffffffffffffffffff168473ffffffffffffffffffffffffffffffffffffffff16148061212057508373ffffffffffffffffffffffffffffffffffffffff166121088461059f565b73ffffffffffffffffffffffffffffffffffffffff16145b8061213157506121308185611d79565b5b91505092915050565b8273ffffffffffffffffffffffffffffffffffffffff1661215a826108f0565b73ffffffffffffffffffffffffffffffffffffffff16146121b0576040517f08c379a00000000000000000000000000000000000000000000000000000000081526004016121a790613c7a565b60405180910390fd5b600073ffffffffffffffffffffffffffffffffffffffff168273ffffffffffffffffffffffffffffffffffffffff161415612220576040517f08c379a000000000000000000000000000000000000000000000000000000000815260040161221790613b5a565b60405180910390fd5b61222b838383612995565b612236600082611fa3565b6001600360008573ffffffffffffffffffffffffffffffffffffffff1673ffffffffffffffffffffffffffffffffffffffff16815260200190815260200160002060008282546122869190613f95565b925050819055506001600360008473ffffffffffffffffffffffffffffffffffffffff1673ffffffffffffffffffffffffffffffffffffffff16815260200190815260200160002060008282546122dd9190613eb4565b92505081905550816002600083815260200190815260200160002060006101000a81548173ffffffffffffffffffffffffffffffffffffffff021916908373ffffffffffffffffffffffffffffffffffffffff160217905550808273ffffffffffffffffffffffffffffffffffffffff168473ffffffffffffffffffffffffffffffffffffffff167fddf252ad1be2c89b69c2b068fc378daa952ba7f163c4a11628f55a4df523b3ef60405160405180910390a4505050565b6123a184848461213a565b6123ad8484848461299a565b6123ec576040517f08c379a00000000000000000000000000000000000000000000000000000000081526004016123e390613afa565b60405180910390fd5b50505050565b6060600082141561243a576040518060400160405280600181526020017f3000000000000000000000000000000000000000000000000000000000000000815250905061259a565b600082905060005b6000821461246c578080612455906140e2565b915050600a826124659190613f0a565b9150612442565b60008167ffffffffffffffff8111156124ae577f4e487b7100000000000000000000000000000000000000000000000000000000600052604160045260246000fd5b6040519080825280601f01601f1916602001820160405280156124e05781602001600182028036833780820191505090505b5090505b60008514612593576001826124f99190613f95565b9150600a85612508919061412b565b60306125149190613eb4565b60f81b818381518110612550577f4e487b7100000000000000000000000000000000000000000000000000000000600052603260045260246000fd5b60200101907effffffffffffffffffffffffffffffffffffffffffffffffffffffffffffff1916908160001a905350600a8561258c9190613f0a565b94506124e4565b8093505050505b919050565b606060008251905060008114156125c85760405180602001604052806000815250915050612758565b600060036002836125d99190613eb4565b6125e39190613f0a565b60046125ef9190613f3b565b905060006020826126009190613eb4565b67ffffffffffffffff81111561263f577f4e487b7100000000000000000000000000000000000000000000000000000000600052604160045260246000fd5b6040519080825280601f01601f1916602001820160405280156126715781602001600182028036833780820191505090505b50905060006040518060600160405280604081526020016148f4604091399050600181016020830160005b868110156127155760038101905062ffffff818a015116603f8160121c168401518060081b905060ff603f83600c1c1686015116810190508060081b905060ff603f8360061c1686015116810190508060081b905060ff603f831686015116810190508060e01b9050808452600484019350505061269c565b50600386066001811461272f576002811461273f5761274a565b613d3d60f01b600283035261274a565b603d60f81b60018303525b508484525050819450505050505b919050565b6127f9848484846040516024016127779493929190613a08565b6040516020818303038152906040527fd5cf17d0000000000000000000000000000000000000000000000000000000007bffffffffffffffffffffffffffffffffffffffffffffffffffffffff19166020820180517bffffffffffffffffffffffffffffffffffffffffffffffffffffffff838183161783525050505061296c565b50505050565b61289b848484846040516024016128199493929190613954565b6040516020818303038152906040527f9fd009f5000000000000000000000000000000000000000000000000000000007bffffffffffffffffffffffffffffffffffffffffffffffffffffffff19166020820180517bffffffffffffffffffffffffffffffffffffffffffffffffffffffff838183161783525050505061296c565b50505050565b600081600001549050919050565b6128c9828260405180602001604052806000815250612b31565b5050565b6129678383836040516024016128e593929190613abc565b6040516020818303038152906040527f969cdd03000000000000000000000000000000000000000000000000000000007bffffffffffffffffffffffffffffffffffffffffffffffffffffffff19166020820180517bffffffffffffffffffffffffffffffffffffffffffffffffffffffff838183161783525050505061296c565b505050565b60008151905060006a636f6e736f6c652e6c6f679050602083016000808483855afa5050505050565b505050565b60006129bb8473ffffffffffffffffffffffffffffffffffffffff16612b8c565b15612b24578373ffffffffffffffffffffffffffffffffffffffff1663150b7a026129e4611f9b565b8786866040518563ffffffff1660e01b8152600401612a069493929190613872565b602060405180830381600087803b158015612a2057600080fd5b505af1925050508015612a5157506040513d601f19601f82011682018060405250810190612a4e9190613116565b60015b612ad4573d8060008114612a81576040519150601f19603f3d011682016040523d82523d6000602084013e612a86565b606091505b50600081511415612acc576040517f08c379a0000000000000000000000000000000000000000000000000000000008152600401612ac390613afa565b60405180910390fd5b805181602001fd5b63150b7a0260e01b7bffffffffffffffffffffffffffffffffffffffffffffffffffffffff1916817bffffffffffffffffffffffffffffffffffffffffffffffffffffffff191614915050612b29565b600190505b949350505050565b612b3b8383612b9f565b612b48600084848461299a565b612b87576040517f08c379a0000000000000000000000000000000000000000000000000000000008152600401612b7e90613afa565b60405180910390fd5b505050565b600080823b905060008111915050919050565b600073ffffffffffffffffffffffffffffffffffffffff168273ffffffffffffffffffffffffffffffffffffffff161415612c0f576040517f08c379a0000000000000000000000000000000000000000000000000000000008152600401612c0690613c3a565b60405180910390fd5b612c1881611f2f565b15612c58576040517f08c379a0000000000000000000000000000000000000000000000000000000008152600401612c4f90613b1a565b60405180910390fd5b612c6460008383612995565b6001600360008473ffffffffffffffffffffffffffffffffffffffff1673ffffffffffffffffffffffffffffffffffffffff1681526020019081526020016000206000828254612cb49190613eb4565b92505081905550816002600083815260200190815260200160002060006101000a81548173ffffffffffffffffffffffffffffffffffffffff021916908373ffffffffffffffffffffffffffffffffffffffff160217905550808273ffffffffffffffffffffffffffffffffffffffff16600073ffffffffffffffffffffffffffffffffffffffff167fddf252ad1be2c89b69c2b068fc378daa952ba7f163c4a11628f55a4df523b3ef60405160405180910390a45050565b6040518060a0016040528060608152602001606081526020016000815260200160008152602001600081525090565b6040518060c001604052806000815260200160608152602001606081526020016000815260200160008152602001600081525090565b828054612dde9061407f565b90600052602060002090601f016020900481019282612e005760008555612e47565b82601f10612e1957805160ff1916838001178555612e47565b82800160010185558215612e47579182015b82811115612e46578251825591602001919060010190612e2b565b5b509050612e549190612e58565b5090565b5b80821115612e71576000816000905550600101612e59565b5090565b6000612e88612e8384613df6565b613dd1565b905082815260208101848484011115612ea057600080fd5b612eab84828561403d565b509392505050565b600081359050612ec281614835565b92915050565b600081359050612ed78161484c565b92915050565b600081359050612eec81614863565b92915050565b600081519050612f0181614863565b92915050565b600082601f830112612f1857600080fd5b8135612f28848260208601612e75565b91505092915050565b600081359050612f408161487a565b92915050565b600060208284031215612f5857600080fd5b6000612f6684828501612eb3565b91505092915050565b60008060408385031215612f8257600080fd5b6000612f9085828601612eb3565b9250506020612fa185828601612eb3565b9150509250929050565b600080600060608486031215612fc057600080fd5b6000612fce86828701612eb3565b9350506020612fdf86828701612eb3565b9250506040612ff086828701612f31565b9150509250925092565b6000806000806080858703121561301057600080fd5b600061301e87828801612eb3565b945050602061302f87828801612eb3565b935050604061304087828801612f31565b925050606085013567ffffffffffffffff81111561305d57600080fd5b61306987828801612f07565b91505092959194509250565b6000806040838503121561308857600080fd5b600061309685828601612eb3565b92505060206130a785828601612ec8565b9150509250929050565b600080604083850312156130c457600080fd5b60006130d285828601612eb3565b92505060206130e385828601612f31565b9150509250929050565b6000602082840312156130ff57600080fd5b600061310d84828501612edd565b91505092915050565b60006020828403121561312857600080fd5b600061313684828501612ef2565b91505092915050565b60006020828403121561315157600080fd5b600061315f84828501612f31565b91505092915050565b600061317483836135ed565b905092915050565b61318581613fc9565b82525050565b600061319682613e37565b6131a08185613e65565b9350836020820285016131b285613e27565b8060005b858110156131ee57848403895281516131cf8582613168565b94506131da83613e58565b925060208a019950506001810190506131b6565b50829750879550505050505092915050565b61320981613fdb565b82525050565b600061321a82613e42565b6132248185613e76565b935061323481856020860161404c565b61323d81614218565b840191505092915050565b600061325382613e4d565b61325d8185613e87565b935061326d81856020860161404c565b61327681614218565b840191505092915050565b600061328c82613e4d565b6132968185613e98565b93506132a681856020860161404c565b6132af81614218565b840191505092915050565b60006132c582613e4d565b6132cf8185613ea9565b93506132df81856020860161404c565b80840191505092915050565b60006132f8603283613e98565b915061330382614229565b604082019050919050565b600061331b601c83613e98565b915061332682614278565b602082019050919050565b600061333e602c83613e98565b9150613349826142a1565b604082019050919050565b6000613361600e83613ea9565b915061336c826142f0565b600e82019050919050565b6000613384602483613e98565b915061338f82614319565b604082019050919050565b60006133a7601983613e98565b91506133b282614368565b602082019050919050565b60006133ca607883613ea9565b91506133d582614391565b607882019050919050565b60006133ed602c83613e98565b91506133f88261442c565b604082019050919050565b6000613410603883613e98565b915061341b8261447b565b604082019050919050565b6000613433602a83613e98565b915061343e826144ca565b604082019050919050565b6000613456602983613e98565b915061346182614519565b604082019050919050565b6000613479602683613e98565b915061348482614568565b604082019050919050565b600061349c600483613ea9565b91506134a7826145b7565b600482019050919050565b60006134bf602083613e98565b91506134ca826145e0565b602082019050919050565b60006134e2602c83613e98565b91506134ed82614609565b604082019050919050565b6000613505602983613e98565b915061351082614658565b604082019050919050565b6000613528600a83613ea9565b9150613533826146a7565b600a82019050919050565b600061354b602183613e98565b9150613556826146d0565b604082019050919050565b600061356e601d83613ea9565b91506135798261471f565b601d82019050919050565b6000613591603183613e98565b915061359c82614748565b604082019050919050565b60006135b4603d83613ea9565b91506135bf82614797565b603d82019050919050565b60006135d7602d83613ea9565b91506135e2826147e6565b602d82019050919050565b600060c083016000830151613605600086018261378a565b506020830151848203602086015261361d8282613248565b915050604083015184820360408601526136378282613248565b915050606083015161364c606086018261378a565b50608083015161365f608086018261378a565b5060a083015161367260a086018261378a565b508091505092915050565b600060c083016000830151613695600086018261378a565b50602083015184820360208601526136ad8282613248565b915050604083015184820360408601526136c78282613248565b91505060608301516136dc606086018261378a565b5060808301516136ef608086018261378a565b5060a083015161370260a086018261378a565b508091505092915050565b600060a083016000830151848203600086015261372a8282613248565b915050602083015184820360208601526137448282613248565b9150506040830151613759604086018261378a565b50606083015161376c606086018261378a565b50608083015161377f608086018261378a565b508091505092915050565b61379381614033565b82525050565b6137a281614033565b82525050565b60006137b38261351b565b91506137bf82886132ba565b91506137ca826133bd565b91506137d682876132ba565b91506137e1826135a7565b91506137ed82866132ba565b91506137f882613354565b915061380482856132ba565b915061380f826135ca565b915061381b82846132ba565b91506138268261348f565b91508190509695505050505050565b600061384082613561565b915061384c82846132ba565b915081905092915050565b600060208201905061386c600083018461317c565b92915050565b6000608082019050613887600083018761317c565b613894602083018661317c565b6138a16040830185613799565b81810360608301526138b3818461320f565b905095945050505050565b60006060820190506138d3600083018661317c565b6138e06020830185613799565b6138ed6040830184613799565b949350505050565b6000602082019050818103600083015261390f818461318b565b905092915050565b600060208201905061392c6000830184613200565b92915050565b6000602082019050818103600083015261394c8184613281565b905092915050565b6000608082019050818103600083015261396e8187613281565b905081810360208301526139828186613281565b905081810360408301526139968185613281565b90506139a56060830184613799565b95945050505050565b600060808201905081810360008301526139c88187613281565b905081810360208301526139dc8186613281565b90506139eb6040830185613799565b81810360608301526139fd8184613281565b905095945050505050565b60006080820190508181036000830152613a228187613281565b90508181036020830152613a368186613281565b9050613a456040830185613799565b613a526060830184613799565b95945050505050565b600060a0820190508181036000830152613a758188613281565b90508181036020830152613a898187613281565b9050613a986040830186613799565b613aa56060830185613799565b613ab26080830184613799565b9695505050505050565b60006060820190508181036000830152613ad68186613281565b9050613ae56020830185613799565b613af26040830184613799565b949350505050565b60006020820190508181036000830152613b13816132eb565b9050919050565b60006020820190508181036000830152613b338161330e565b9050919050565b60006020820190508181036000830152613b5381613331565b9050919050565b60006020820190508181036000830152613b7381613377565b9050919050565b60006020820190508181036000830152613b938161339a565b9050919050565b60006020820190508181036000830152613bb3816133e0565b9050919050565b60006020820190508181036000830152613bd381613403565b9050919050565b60006020820190508181036000830152613bf381613426565b9050919050565b60006020820190508181036000830152613c1381613449565b9050919050565b60006020820190508181036000830152613c338161346c565b9050919050565b60006020820190508181036000830152613c53816134b2565b9050919050565b60006020820190508181036000830152613c73816134d5565b9050919050565b60006020820190508181036000830152613c93816134f8565b9050919050565b60006020820190508181036000830152613cb38161353e565b9050919050565b60006020820190508181036000830152613cd381613584565b9050919050565b60006020820190508181036000830152613cf4818461367d565b905092915050565b60006020820190508181036000830152613d16818461370d565b905092915050565b6000602082019050613d336000830184613799565b92915050565b600060c082019050613d4e6000830189613799565b8181036020830152613d608188613281565b90508181036040830152613d748187613281565b9050613d836060830186613799565b613d906080830185613799565b613d9d60a0830184613799565b979650505050505050565b6000604082019050613dbd6000830185613799565b613dca6020830184613799565b9392505050565b6000613ddb613dec565b9050613de782826140b1565b919050565b6000604051905090565b600067ffffffffffffffff821115613e1157613e106141e9565b5b613e1a82614218565b9050602081019050919050565b6000819050602082019050919050565b600081519050919050565b600081519050919050565b600081519050919050565b6000602082019050919050565b600082825260208201905092915050565b600082825260208201905092915050565b600082825260208201905092915050565b600082825260208201905092915050565b600081905092915050565b6000613ebf82614033565b9150613eca83614033565b9250827fffffffffffffffffffffffffffffffffffffffffffffffffffffffffffffffff03821115613eff57613efe61415c565b5b828201905092915050565b6000613f1582614033565b9150613f2083614033565b925082613f3057613f2f61418b565b5b828204905092915050565b6000613f4682614033565b9150613f5183614033565b9250817fffffffffffffffffffffffffffffffffffffffffffffffffffffffffffffffff0483118215151615613f8a57613f8961415c565b5b828202905092915050565b6000613fa082614033565b9150613fab83614033565b925082821015613fbe57613fbd61415c565b5b828203905092915050565b6000613fd482614013565b9050919050565b60008115159050919050565b60007fffffffff0000000000000000000000000000000000000000000000000000000082169050919050565b600073ffffffffffffffffffffffffffffffffffffffff82169050919050565b6000819050919050565b82818337600083830152505050565b60005b8381101561406a57808201518184015260208101905061404f565b83811115614079576000848401525b50505050565b6000600282049050600182168061409757607f821691505b602082108114156140ab576140aa6141ba565b5b50919050565b6140ba82614218565b810181811067ffffffffffffffff821117156140d9576140d86141e9565b5b80604052505050565b60006140ed82614033565b91507fffffffffffffffffffffffffffffffffffffffffffffffffffffffffffffffff8214156141205761411f61415c565b5b600182019050919050565b600061413682614033565b915061414183614033565b9250826141515761415061418b565b5b828206905092915050565b7f4e487b7100000000000000000000000000000000000000000000000000000000600052601160045260246000fd5b7f4e487b7100000000000000000000000000000000000000000000000000000000600052601260045260246000fd5b7f4e487b7100000000000000000000000000000000000000000000000000000000600052602260045260246000fd5b7f4e487b7100000000000000000000000000000000000000000000000000000000600052604160045260246000fd5b6000601f19601f8301169050919050565b7f4552433732313a207472616e7366657220746f206e6f6e20455243373231526560008201527f63656976657220696d706c656d656e7465720000000000000000000000000000602082015250565b7f4552433732313a20746f6b656e20616c7265616479206d696e74656400000000600082015250565b7f54686520686f72726f7220697320616c72656164792064656164206e6f206e6560008201527f656420746f2061747461636b0000000000000000000000000000000000000000602082015250565b7f2c20226d61785f76616c7565223a000000000000000000000000000000000000600082015250565b7f4552433732313a207472616e7366657220746f20746865207a65726f2061646460008201527f7265737300000000000000000000000000000000000000000000000000000000602082015250565b7f4552433732313a20617070726f766520746f2063616c6c657200000000000000600082015250565b7f222c20226465736372697074696f6e223a2022596f757220747275737479206360008201527f6f6c6c6567652073747564656e742074686174206973206a757374207472796960208201527f6e6720746f20737572766976652068616c6c6f7765656e206e6967687420696e60408201527f2074686520776f6f647321222c2022696d616765223a20220000000000000000606082015250565b7f4552433732313a206f70657261746f7220717565727920666f72206e6f6e657860008201527f697374656e7420746f6b656e0000000000000000000000000000000000000000602082015250565b7f4552433732313a20617070726f76652063616c6c6572206973206e6f74206f7760008201527f6e6572206e6f7220617070726f76656420666f7220616c6c0000000000000000602082015250565b7f4552433732313a2062616c616e636520717565727920666f7220746865207a6560008201527f726f206164647265737300000000000000000000000000000000000000000000602082015250565b7f4552433732313a206f776e657220717565727920666f72206e6f6e657869737460008201527f656e7420746f6b656e0000000000000000000000000000000000000000000000602082015250565b7f596f752068617665206e6f206865616c7468206c65667420746f20617474616360008201527f6b20776974680000000000000000000000000000000000000000000000000000602082015250565b7f7d205d7d00000000000000000000000000000000000000000000000000000000600082015250565b7f4552433732313a206d696e7420746f20746865207a65726f2061646472657373600082015250565b7f4552433732313a20617070726f76656420717565727920666f72206e6f6e657860008201527f697374656e7420746f6b656e0000000000000000000000000000000000000000602082015250565b7f4552433732313a207472616e73666572206f6620746f6b656e2074686174206960008201527f73206e6f74206f776e0000000000000000000000000000000000000000000000602082015250565b7f7b226e616d65223a202200000000000000000000000000000000000000000000600082015250565b7f4552433732313a20617070726f76616c20746f2063757272656e74206f776e6560008201527f7200000000000000000000000000000000000000000000000000000000000000602082015250565b7f646174613a6170706c69636174696f6e2f6a736f6e3b6261736536342c000000600082015250565b7f4552433732313a207472616e736665722063616c6c6572206973206e6f74206f60008201527f776e6572206e6f7220617070726f766564000000000000000000000000000000602082015250565b7f222c202261747472696275746573223a205b207b202274726169745f7479706560008201527f223a20224865616c746820506f696e7473222c202276616c7565223a20000000602082015250565b7f7d2c207b202274726169745f74797065223a202241747461636b2044616d616760008201527f65222c202276616c7565223a2000000000000000000000000000000000000000602082015250565b61483e81613fc9565b811461484957600080fd5b50565b61485581613fdb565b811461486057600080fd5b50565b61486c81613fe7565b811461487757600080fd5b50565b61488381614033565b811461488e57600080fd5b5056fe25732061747461636b65642074686520636f6c6c6567652073747564656e742c206e6f772074686520257320686173202573206865616c746854686520257320686173202573206865616c746820616e642025732061747461636b2064616d6167654142434445464748494a4b4c4d4e4f505152535455565758595a6162636465666768696a6b6c6d6e6f707172737475767778797a303132333435363738392b2f506c6179657220776974682073747564656e742025732069732061626f757420746f2061747461636b2e20546865792068617665202573206865616c746820616e642025732061747461636b2064616d6167654d696e746564204e4654207769746820696420257320616e6420636861726163746572496e646578202573a26469706673582212201bb215b70dd8b52f1658224bba699671cc1ea6fa36d3726f4c7bd48e24aa586d64736f6c63430008040033446f6e6520696e6974616c697a696e672025732077697468204865616c74682025732c20696d67202573446f6e6520496e697469616c697a696e6720486f72726f723a2025732077697468202573206865616c7468202d20257348616c6c6f7765656e20486f72726f7220436f6c6c6567652053747564656e7473",
  "linkReferences": {},
  "deployedLinkReferences": {}
}